:020000040000FA
:1000000001C0D8C0112480914000882369F0282FB6
:1000100030E083FD03C02C7F232B31F4809340001C
:100020008CBB80E0AFD0ECC0A895009A089A1092E3
:10003000E205809182128370813029F58CE590E091
:10004000809308089093090881E080930B0883E06F
:10005000809307081092050880EC8093060888E0DA
:1000600091D0079A87E0815089F4A8950DE983E043
:10007000D82E7CD08134F1F479D0182F8CD012385E
:1000800089F480E013C083E790E0DACF179A2EEC72
:1000900036E5A8959091040897FDE8CF21503109E5
:1000A000C1F7E1CF89E0113809F083E058D080E151
:1000B00056D0DFCF823419F484E175D0F8CF85347F
:1000C00011F485E0FACF853531F450D0C82F4ED0E9
:1000D000D82F61D0ECCF863519F484E064D0D1CF2D
:1000E0008436B9F443D042D0182F40D0863479F406
:1000F000D05C3CD0888321961150D9F74CD004BFF6
:10010000D0920010809102108370E1F7D0CFDC5EB6
:10011000F0CF843791F42AD029D0182F27D0F82E89
:100120003AD086E4F81207C0D05C8881219617D0B7
:100130001150D9F7BCCFDC5EF8CF853751F42BD006
:10014000809100110CD08091011109D08091021191
:10015000ADCF813509F0BDCF81E014D0BACF9091F9
:10016000040895FFFCCF809302080895809104084D
:1001700087FFFCCF909101088091000892FD01C09B
:10018000A89508959091010190FDFCCF98ED94BF42
:10019000809300010895EADF803219F081E0F2DFF8
:1001A000FFCF84E1DCCFCF93C82FE0DFC150E9F768
:1001B000CF91F1CF683048F48DE984BF609300108F
:1001C000809102108370E1F70895FC014083089547
:1001FE00000950C0000076C0000074C0000072C03C
:10020E00000070C000006EC000006CC000000C94B6
:10021E00832568C0000066C0000064C0000062C094
:10022E00000060C000005EC000005CC000005AC04C
:10023E00000058C0000056C0000054C0000052C05C
:10024E00000050C000004EC000004CC000004AC06C
:10025E00000048C000000C945B2544C0000042C062
:10026E00000040C000003EC000003CC000000C94E6
:10027E002D250C94072536C0000034C0000032C076
:10028E00000030C000002EC000002CC000002AC0AC
:10029E000000CE2611241FBECFEFCDBFDFE3DEBFA1
:1002AE0018E2A0E0B8E2E9EFF8E702C005900D927F
:1002BE00A232B107D9F72CE2A2E2B8E201C01D9238
:1002CE00AD38B207E1F711E0C1E5D1E004C02197E6
:1002DE00FE010E94AD3BC035D107C9F70E94DE2A50
:1002EE000C94D83B86CF809131288823B1F01092A0
:1002FE0031288091492890914A28A0914B28B0919D
:10030E004C280196A11DB11D8093492890934A282F
:10031E00A0934B28B0934C28089581E08093312808
:10032E00E8CF089581E08093432808958091442872
:10033E00882319F010924428089581E08093442870
:10034E0008950F931F93CF93DF93C0918928D09177
:10035E008A28C630D105BCF48E01000F111F045837
:10036E00174D609112287091132880911428909146
:10037E0015280E94FE39F801608371832196C0937F
:10038E008928D0938A28DF91CF911F910F910895DC
:10039E0080916F28811104C081E080936F280895A9
:1003AE0010926F28089580915529882309F442C12F
:1003BE0080910A2890910B28009791F480911D2925
:1003CE0090911E290196823091052CF480931D295F
:1003DE0090931E29089510921D2910921E2908959A
:1003EE008130910591F480911F29909120290196D9
:1003FE00823091052CF480931F2990932029089523
:10040E0010921F291092202908958230910591F49F
:10041E0080912129909122290196823091052CF408
:10042E0080932129909322290895109221291092C8
:10043E00222908958330910591F48091232990917A
:10044E0024290196823091052CF4809323299093D0
:10045E002429089510922329109224290895843076
:10046E00910589F480912529909126290196813450
:10047E0021E092072CF48093252990932629089544
:10048E0080E491E0F8CF8630910581F4809129299E
:10049E0090912A290196873991052CF48093292968
:1004AE0090932A29089586E990E0F8CF8730910538
:1004BE0089F480912B2990912C2901968D3221E07F
:1004CE0092072CF480932B2990932C2908958CE27B
:1004DE0091E0F8CF8830910581F480912D2990918B
:1004EE002E290196873991052CF480932D2990930E
:1004FE002E29089586E990E0F8CF8930910581F490
:10050E0080912F299091302901968A3091052CF4F3
:10051E0080932F2990933029089589E090E0F8CFA9
:10052E008A30910589F48091312990913229019672
:10053E00873321E092072CF480933129909332294E
:10054E00089586E391E0F8CF8B30910581F4809188
:10055E0033299091342901968A3091052CF4809399
:10056E00332990933429089589E090E0F8CF8131B2
:10057E00910589F480913F299091402901968D3201
:10058E0021E092072CF480933F29909340290895FF
:10059E008CE291E0F8CF8031910581F480913D2974
:1005AE0090913E290196833391052CF480933D2939
:1005BE0090933E29089582E390E0F8CF8D30910517
:1005CE0091F48091372990913829019682309105C6
:1005DE002CF4809337299093382908951092372957
:1005EE001092382908958E30910581F48091392921
:1005FE0090913A290196823091052CF480933929F5
:10060E0090933A29089583E690E0F8CF0F9709F07A
:10061E008DC080913B2990913C290196883E23E024
:10062E0092072CF480933B2990933C29089581E006
:10063E0090E0F8CF80911C298130C9F5809109286E
:10064E00811123C0809110299091112901968093D8
:10065E0010299093112920910D29222369F02091C0
:10066E000B2930910C29281739070CF05FC0209305
:10067E0010293093112908958D3291400CF456C0F3
:10068E001092102910921129089580911A29909193
:10069E001B2901968B3091052CF480931A29909387
:1006AE001B29089510921A2910921B290895833040
:1006BE0091F4809114299091152901968436910513
:1006CE002CF48093142990931529089510921429CF
:1006DE00109215290895843091F4809116299091E5
:1006EE00172901968C3391052CF48093162990933B
:1006FE0017290895109216291092172908958530FA
:10070E00A9F480910A29882389F080911829909163
:10071E0019290196823091052CF480931829909313
:10072E001929089510921829109219290895809167
:10073E005529882309F435C180910A2890910B28F8
:10074E00009779F480911D2990911E29019797FDAC
:10075E0005C080931D2990931E29089581E090E095
:10076E00F8CF8130910569F420911F29309120290D
:10077E002150310937FF80C180931F299093202982
:10078E0008958230910579F4809121299091222942
:10079E00019797FD05C080932129909322290895F2
:1007AE0081E090E0F8CF8330910579F48091232990
:1007BE0090912429019797FD05C08093232990934A
:1007CE002429089581E090E0F8CF8430910589F4D2
:1007DE008091252990912629019797FD05C0809338
:1007EE0025299093262908951092252910922629BD
:1007FE0008958630910581F48091292990912A29B6
:10080E000197863491052CF08093292990932A29FB
:10081E00089586E490E0F8CF8730910581F48091B9
:10082E002B2990912C290197863E91052CF08093CF
:10083E002B2990932C29089586EE90E0F8CF8830DE
:10084E00910589F480912D2990912E29019797FD7C
:10085E0005C080932D2990932E29089510922D294D
:10086E0010922E2908958930910589F480912F29AF
:10087E0090913029019797FD05C080932F29909371
:10088E003029089510922F291092302908958A3018
:10089E00910589F48091312990913229019797FD24
:1008AE0005C08093312990933229089510923129F1
:1008BE001092322908958B30910589F48091332955
:1008CE0090913429019797FD05C080933329909319
:1008DE0034290895109233291092342908958131C4
:1008EE00910589F480913F2990914029019797FDB8
:1008FE0005C080933F2990934029089510923F2977
:10090E001092402908958D30910579F48091372900
:10091E0090913829019797FD05C0809337299093C0
:10092E003829089581E090E0F8CF8031910589F45F
:10093E0080913D2990913E29019797FD05C08093A6
:10094E003D2990933E29089510923D2910923E29FB
:10095E0008958E30910589F48091392990913A2924
:10096E00019797FD05C08093392990933A290895F0
:10097E001092392910923A2908950F9709F080C0E4
:10098E0080913B2990913C29019797FD05C080935A
:10099E003B2990933C29089510923B2910923C29B3
:1009AE00089580911C29813081F58091092881114B
:1009BE001DC08091102990911129019780931029C3
:1009CE009093112920910D29222339F097FF58C0B9
:1009DE001092102910921129089597FF51C08CE2A0
:1009EE0091E08093102990931129089580911A29EE
:1009FE0090911B29019797FD05C080931A2990931A
:100A0E001B2908958AE090E0F8CF833079F4809125
:100A1E00142990911529019797FD05C080931429EB
:100A2E0090931529089583E690E0F8CF843079F4F9
:100A3E008091162990911729019797FD05C08093F3
:100A4E0016299093172908958BE390E0F8CF8530FF
:100A5E00B9F480910A29882399F0809118299091F0
:100A6E001929019797FD05C080931829909319298C
:100A7E00089581E090E0F8CF20931F29309320292C
:100A8E0008954F925F926F927F928F929F92AF9244
:100A9E00BF92CF92DF92EF92FF92CF93DF9300D06F
:100AAE0000D0CDB7DEB7C0900229D0900329E090D8
:100ABE000429F090052920E030E0A901C701B60114
:100ACE000E949239811179C08091FE289091FF2861
:100ADE00A0910029B091012980930E2890930F28A0
:100AEE00A0931028B093112820E030E040E251E4AA
:100AFE006091062970910729809108299091092902
:100B0E000E9496392091FD28211190586093F92862
:100B1E007093FA288093FB289093FC28B090F828C5
:100B2E00C0900E28D0900F28E0901028F090112839
:100B3E00BB2009F4B4C0A70196016091F928709109
:100B4E00FA288091FB289091FC280E942E39609300
:100B5E00122870931328809314289093152880914F
:100B6E00F6289091F728892B89F5BB20A1F0A701D3
:100B7E0096016091F9287091FA288091FB28909146
:100B8E00FC280E942E3960931228709313288093AC
:100B9E001428909315282496CDBFDEBFDF91CF91F8
:100BAE00FF90EF90DF90CF90BF90AF909F908F907F
:100BBE007F906F905F904F900895C0920E28D092C4
:100BCE000F28E0921028F09211288ECF6091F22813
:100BDE007091F3288091F4289091F5280E94313A73
:100BEE0020E030E040E251E40E9496394B015C0176
:100BFE006091EA287091EB288091EC289091ED2875
:100C0E000E94313A20E030E040E251E40E949639F1
:100C1E002B013C016091E6287091E7288091E8282D
:100C2E009091E9280E94313A20E030E040E251E410
:100C3E000E949639A30192010E942D3969837A830D
:100C4E008B839C83A5019401C701B6010E942D39A7
:100C5E009B01AC0169817A818B819C810E94E53A6E
:100C6E006B017C016091EE287091EF288091F02845
:100C7E009091F1280E94313A20E030E040E251E4B8
:100C8E000E949639A50194010E942D399B01AC0159
:100C9E00C701B6010E949639A301920172CFC0928C
:100CAE001228D0921328E0921428F092152857CFCC
:100CBE00CF92DF92EF92FF926B0128EE33E040E08D
:100CCE0050E00E94913BEEEDF8E22083318368EE16
:100CDE0073E0629FC001639F900D729F900D11246F
:100CEE00C81AD90AC60164E670E00E945C3B6283B2
:100CFE0073832CE92603C001279F900D1124C80E83
:100D0E00D91EC6016AE070E00E945C3B6483758365
:100D1E0026EF2603C001279F900D1124C80ED91E61
:100D2E00C682D782FF90EF90DF90CF900895CF923A
:100D3E00DF92EF92FF926B0128EE33E040E050E03D
:100D4E000E94913BE6EDF8E22083318368EE73E07A
:100D5E00629FC001639F900D729F900D1124C81A5F
:100D6E00D90AC60164E670E00E945C3B628373831D
:100D7E002CE92603C001279F900D1124C80ED91E01
:100D8E00C6016AE070E00E945C3B6483758326EFC7
:100D9E002603C001279F900D1124C80ED91EC682AE
:100DAE00D782FF90EF90DF90CF90089580918828A2
:100DBE00811106C01092CE2810924128109242281E
:100DCE000895F4CFFC01613019F4648B81E008952D
:100DDE00148A6623D9F380E00895AF92BF92CF9222
:100DEE00DF92EF92FF920F931F93CF93DF936C01DD
:100DFE007B018B01040F151FEB015E01AE18BF08BE
:100E0E00C017D10759F06991D601ED91FC9101906F
:100E1E00F081E02DC6010995892B79F7C501DF9187
:100E2E00CF911F910F91FF90EF90DF90CF90BF90D9
:100E3E00AF900895FC01508D418D252F30E0842F09
:100E4E0090E0821B930B541710F0CF9608950197E4
:100E5E000895FC0196898789981761F0A789AE0FCE
:100E6E00BF2FB11D5D968C9197899F5F9F73978B56
:100E7E0090E008958FEF9FEF0895FC019689878982
:100E8E00981731F08789E80FF11D858D90E0089550
:100E9E008FEF9FEF0895FC0196892789892F90E0A7
:100EAE00805C9F4F821B91098F739927089586E569
:100EBE0099E2F1DF21E0892B09F420E0822F0895D9
:100ECE00CF93DF93EC01E881F9810680F781E02D65
:100EDE000995EC85FD8586818F738683EC85FD856E
:100EEE0085818F7585838F898E8B1D8ADF91CF913A
:100EFE000895DC0154961C92549754968C915497F5
:100F0E008230A0F4282F30E0F901EE0FFF1FE20F20
:100F1E00F31FEA0FFB1F9785961303C09685941750
:100F2E0049F08F5F54968C935497E7CF54961C924A
:100F3E0080E0089581E00895CF93DF93FC01908DBA
:100F4E00818DC485D585981306C08D818F7D8D8347
:100F5E00DF91CF910895A18DAE0FBF2FB11DA35A72
:100F6E00BF4F2C91818D90E001968F739927818FC1
:100F7E0080E48C83A485B58512962C93908D818DFB
:100F8E009813E6CFA485B58515968C9115978F7D10
:100F9E0015968C93838D8823D9F2848D80931301BB
:100FAE00138ED6CFDC011C96ED91FC910FB607FE89
:100FBE0003C0258125FD03C0248125FDBDCF0895E5
:100FCE00EF92FF920F931F93CF93DF93EC0181E08B
:100FDE008D8B988D898D98131CC0AC85BD8514960C
:100FEE008C91149785FF15C012966C93AC85BD85B8
:100FFE0080E414968C93EC85FD8585818F7D8583A9
:10100E0081E090E0DF91CF911F910F91FF90EF90D3
:10101E0008958091110180FF08C0809113018C8F7B
:10102E008A8D8093130181E08B8FF62E088D10E050
:10103E000F5F1F4F0F731127E02E898D8E1103C086
:10104E00CE01B0DFFACFE88DEC0FFD2FF11DE35A84
:10105E00FF4FF082088FEC85FD8585818062CFCFB2
:10106E00CF93DF93FC0125892223C1F0EC018091FF
:10107E00110180FF08C080911301848F828D8093AF
:10108E00130181E0838FEC85FD85858185FD03C08D
:10109E00848186FD03C0CE0185DFF5CFDF91CF9130
:1010AE00089580E090E0892B49F080E090E0892B54
:1010BE0029F00E94000081110E94000080E090E063
:1010CE00892B49F080E090E0892B29F00E940000E6
:1010DE0081110E94000080E090E0892B21F0E7DE74
:1010EE0081110E94000080E090E0892B49F080E0A1
:1010FE0090E0892B29F00E94000081110C940000D1
:10110E00089581E00895CF93DF9390E0FC01EE54B3
:10111E00F74420812F3F69F0FC01E757F744A08187
:10112E0030E2A39FD0011124BC5F613029F41196E7
:10113E002C93DF91CF910895805A9744EC01E8816A
:10114E00EF3F81F0CD014096E80FF92FF11D9FB7CB
:10115E00F89412962C938081623039F488608083E3
:10116E009FBFE7CFF0E0E0E0F2CF877FF8CF893284
:10117E0008F4C9CF089590E0FC01E95CF744E081E2
:10118E00EE2319F1E13021F000F1E630A8F00895D8
:10119E00805A9744FC012081233008F02F5F309154
:1011AE00010A81E090E001C0880F2A95EAF7809548
:1011BE0083238093010A089580E1E89FF0011124B2
:1011CE00E05AF54F81818F7E818308950F931F938F
:1011DE00CF93DF93C82FD0E0FE01EE54F744008189
:1011EE000F3F99F0162F893208F4C5DFFE01E7573D
:1011FE00F744E08180E2E89FF0011124FC5F8081DA
:10120E00802351F0111106C00683DF91CF911F91FB
:10121E000F9108950583F9CFC05AD744888130972E
:10122E0071F08F3F61F07096E80FF11D9FB7F89443
:10123E008081111107C0877F80839FBFE6CFF0E0CA
:10124E00E0E0F4CF8860F8CF893208F4BFCF08957C
:10125E000F931F93CF93DF93EC01162F072F82E38B
:10126E0090E08E839F8360E0812F81DF1883098356
:10127E0088E592E08A839B8388EE93E08C839D833E
:10128E00198E1A8E1C8681E090E0888799871A86BF
:10129E001B8661E0812FD8DF1F86188A198A1A8A69
:1012AE001B8A1C8A1D8A1E8A1F8A188EDF91CF9177
:1012BE001F910F910895AF92BF92CF92DF92EF924E
:1012CE00FF920F931F93CF93DF93EC016A017B0183
:1012DE00A22E8D89882339F0E881F9810688F78955
:1012EE00E02DCE0109950C8910E0BFB6F89460E0B0
:1012FE0070E281EA97E0A70196010E946F3B6901B7
:10130E007A018FEFC81AD80AE80AF80AF694E79419
:10131E00D794C794EC85FD8586818D7F8683EC8579
:10132E00FD85868186831D8AA09123110A2E000CCD
:10133E00BB0BA70196010E94C33B20E034E040E0C6
:10134E0050E00E94913BEC85FD85C20ED31EE41E3B
:10135E00F51EC086D186EC85FD85A782EC85FD85C0
:10136E008681806C8683EC85FD858581806885838A
:10137E009091E2058B89809589239801220F331F66
:10138E00020F131FC00FD11F9889892B8093E2057E
:10139E0062E08E85ECDE61E08F8556DF61E08F8541
:1013AE00E6DEBFBEDF91CF911F910F91FF90EF90C0
:1013BE00DF90CF90BF90AF90089561E08AE106DF95
:1013CE0061E08DE103DF61E08CE100DF61E08BE144
:1013DE00FDCE0F931F93CF93082F10E0F801EE541C
:1013EE00F744C081CF3F81F0893208F4C4DEF801A2
:1013FE00E757F744E08180E2E89FF0011124FC5F9B
:10140E008085C82381E009F480E0CF911F910F9170
:10141E0008958FB7F8942091452830914628409131
:10142E00472850914828E091AA0AF091AB0A909172
:10143E00A60A90FF08C02F5F3F4F4F4F5F4FE091BE
:10144E00AA0AF091AB0A8FBFA8EEB3E00E94B93B97
:10145E0024E0F695E7952A95E1F76E0F7F1F811D23
:10146E00911D08952FB7F8946091452870914628E4
:10147E0080914728909148282FBF08954F925F92F0
:10148E006F927F928F929F92AF92BF92CF92DF9286
:10149E00EF92FF92CF93DF93CDB7DEB72C97CDBFF0
:1014AE00DEBF8091122890911328A0911428B0913C
:1014BE0015288D839E83AF83B8878091552981111E
:1014CE00CCC18D819E81AF81B88580933C2A90934B
:1014DE003D2AA0933E2AB0933F2AC090342AD09042
:1014EE00352AE090362AF090372A20E030E0A90124
:1014FE00C701B6010E94E13A87FDB8C120E030E095
:10150E0040E253E4C701B6010E94923918160CF45A
:10151E00ADC180E090E0A0E7B1E4809316289093EF
:10152E001728A0931828B09319288DEC9CECACE4E6
:10153E00BDE380931A2890931B28A0931C28B09388
:10154E001D2880E090E0A0EAB2E480931E289093DC
:10155E001F28A0932028B0932128809116289091BF
:10156E001728A0911828B091192889839A83AB83E4
:10157E00BC8320E030E0A901BC01CD010E9492396C
:10158E0087FDC2C040901A2850901B2860901C28DE
:10159E0070901D2820E030E0A901C301B2010E9425
:1015AE00923987FDB1C080901E2890901F28A09080
:1015BE002028B090212820E030E0A901C501B40117
:1015CE000E94923987FDA0C081E020915A2A309165
:1015DE005B2A2130310509F080E080937B2A8981D6
:1015EE009A81AB81BC818093402A9093412AA0932B
:1015FE00422AB093432A4092442A5092452A60923E
:10160E00462A7092472A8092482A9092492AA0929E
:10161E004A2AB0924B2A60916E2A70916F2A80915D
:10162E00702A9091712A0E942F3A20E030E04AE70A
:10163E0054E40E94963969877A878B879C878981C3
:10164E009A81AB81BC8180934C2A90934D2AA093B2
:10165E004E2AB0934F2A29853A854B855C85C30166
:10166E00B2010E94E53A2B013C014092502A509261
:10167E00512A6092522A7092532A29853A854B85B7
:10168E005C85C501B4010E9496394B015C018092C4
:10169E00542A9092552AA092562AB092572A809197
:1016AE00582A9091592A019779F529813A814B81CF
:1016BE005C8160E070E0CB010E942D3960934C2A72
:1016CE0070934D2A80934E2A90934F2AA301920134
:1016DE0060E070E0CB010E942D396093502A709328
:1016EE00512A8093522A9093532AA501940160E0C7
:1016FE0070E0CB010E942D396093542A7093552AC5
:10170E008093562A9093572A2D813E814F8158857A
:10171E00C701B6010E942D394B015C0120E030E07B
:10172E0040EA51E40E94923987FFE0C120E030E0A8
:10173E0040EF51E4C701B6010E94E13A87FD30C186
:10174E0020E030E040E253E4C701B6010E94923936
:10175E0018160CF425C120913C2A30913D2A409157
:10176E003E2A50913F2AC701B6010E942D396B01C6
:10177E007C0120E030E040E051E40E94E13A18168E
:10178E000CF0CAC08091532990915429892B09F0ED
:10179E00C3C088EE93E080930C2890930D2881E0CF
:1017AE0090E080935329909354295CDE6B017C0169
:1017BE0080914F2990915029A0915129B091522991
:1017CE0040910C2850910D28052E000C660B770BBE
:1017DE00C81AD90AEA0AFB0A4C155D056E057F0583
:1017EE0060F4840F951FA61FB71F80934F29909307
:1017FE005029A0935129B093522934DEC0904F291D
:10180E00D0905029E0905129F09052296C197D0901
:10181E008E099F090E942F3A2091382A3091392A39
:10182E0040913A2A50913B2A0E94E13A18160CF048
:10183E006EC160E088E12C96CDBFDEBFDF91CF9107
:10184E00FF90EF90DF90CF90BF90AF909F908F90D2
:10185E007F906F905F904F90B9CC80910E289091B1
:10186E000F28A0911028B09111282FCE20E030E043
:10187E0040E253E4C701B6010E94E13A18163CF566
:10188E0020E030E04CE553E4C701B6010E949239E6
:10189E0087FF1DC080E090E0A0EFB1E48093162892
:1018AE0090931728A0931828B093192889E29CE5E5
:1018BE00AFE8BDE380931A2890931B28A0931C28B1
:1018CE00B0931D2880E090E0A8ECB2E43ECE20E07C
:1018DE0030E04CE553E4C701B6010E94E13A87FDC2
:1018EE003CCE20E030E040EA53E4C701B6010E944E
:1018FE00923987FF32CE80E090E0A0E7B2E4809389
:10190E00162890931728A0931828B09319288DECB9
:10191E009CECACE4BDE3CECF20E030E040EC50E4F4
:10192E00C701B6010E94923918167CF08091532996
:10193E0090915429019749F480EB94E080930C2800
:10194E0090930D2882E090E02CCF20E030E040E430
:10195E0050E4C701B6010E94923918167CF08091AE
:10196E00532990915429029749F488E795E0809382
:10197E000C2890930D2883E090E013CF20E030E008
:10198E0040E050E4C701B6010E94E13A87FD0DCF59
:10199E008091532990915429039709F4FACE05CFDB
:1019AE0020E030E040E253E4C701B6010E94E13A84
:1019BE0018160CF04FC020E030E046E653E4C701A5
:1019CE00B6010E94923987FF45C020913C2A309182
:1019DE003D2A40913E2A50913F2AC701B6010E94EE
:1019EE002D396B017C0120E030E040E051E40E9493
:1019FE00E13A18163CF48091532990915429892B81
:101A0E0009F4C7CE20E030E040E051E4C701B60152
:101A1E000E94923918164CF08091532990915429B6
:101A2E00019719F48EE096E089CF20E030E040E88F
:101A3E0050E4C701B6010E94923918160CF451C039
:101A4E008091532990915429029709F04AC086ED4E
:101A5E0096E08DCF20E030E046E653E4C701B601B4
:101A6E000E94E13A87FDA1CE20E030E040EA53E447
:101A7E00C701B6010E94923987FF97CE20913C2A6A
:101A8E0030913D2A40913E2A50913F2AC701B6011E
:101A9E000E942D396B017C0120E030E040EE50E4D5
:101AAE000E94E13A18163CF48091532990915429E2
:101ABE00892B09F46ECE20E030E040E850E4C701F7
:101ACE00B6010E94923918163CF0809153299091DC
:101ADE005429019709F4A6CF20E030E040E050E40D
:101AEE00A8CF20E030E040E450E44CCF20E030E0DE
:101AFE0040EA51E4C501B4010E94E13A87FD55CE9A
:101B0E0088EE93E080930C2890930D284ECE2DEC0A
:101B1E003CEC4CEC5DE36091342A7091352A809157
:101B2E00362A9091372A0E942E3920913C2A3091E4
:101B3E003D2A40913E2A50913F2A0E949239181612
:101B4E000CF077CE61E076CE0F931F93CF93DF9399
:101B5E00FC012081222309F450C0EC01818592857D
:101B6E000197B9F57FDC0B891C892D893E89601B95
:101B7E00710B820B930B09811A812B813C816017AB
:101B8E00710782079307C8F16DDC6B8B7C8B8D8B95
:101B9E009E8B8B859C85AD85BE854D815E816F81CB
:101BAE007885481B590B6A0B7B0B4130510561053B
:101BBE00710509F418820196A11DB11D8B879C87B2
:101BCE00AD87BE87E989FA89DF91CF911F910F9179
:101BDE0009941FDC0B891C892D893E89601B710BB2
:101BEE00820B930B09811A812B813C81601771073F
:101BFE008207930710F00DDCC8CFDF91CF911F91B4
:101C0E000F910895CF93DF93FC0121893289232B05
:101C1E00A1F0EC0181859285019791F423DC6B8B09
:101C2E007C8B8D8B9E8B81E088831B861C861D860C
:101C3E001E8681E090E08F87988BDF91CF9108957B
:101C4E00E8DBEDCFDC01BC01990F880B990B2091DD
:101C5E00D92B3091DA2B232B21F428EE33E00E947E
:101C6E00B33B6093D12B7093D22B8093D32B909355
:101C7E00D42B61E085E1AADA80ED9BE2C3CFCF924F
:101C8E00DF92EF92FF920F931F93CF93DF93EC01AE
:101C9E0088818932F8F49DDB082F10E0E3DB298D73
:101CAE003A8D21153105C1F42A853B852017310760
:101CBE0041F421E030E0298F3A8F6B8F7C8F8D8F2E
:101CCE009E8FDF91CF911F910F91FF90EF90DF903C
:101CDE00CF90089580E0E0CF2130310509F051C05A
:101CEE002885398520173107E9F40B8D1C8D2D8D34
:101CFE003E8DAB01BC01401B510B620B730B8E81F1
:101D0E009F81092E000CAA0BBB0B481759076A07B7
:101D1E007B0718F4198E1A8ED4CF82E090E0898F4B
:101D2E009A8FCFCF2A853B852017310751F60B8D21
:101D3E001C8D2D8D3E8DAB01BC01401B510B620BDA
:101D4E00730B8C819D81092E000CAA0BBB0B841783
:101D5E009507A607B70708F0B4CF81E08C87E9890D
:101D6E00FA89309709F00995EB89FC89309709F0CB
:101D7E000995EF89F88D309709F0099586E090E086
:101D8E00CECF2230310519F5CB8CDC8CED8CFE8C50
:101D9E006C197D098E099F09CA80DB800D2C000C01
:101DAE00EE08FF08C616D706E806F90638F4ED85E4
:101DBE00FE85309709F4AECF0995ACCF8A859B8509
:101DCE008017910709F07DCF83E090E0A8CF2330F4
:101DDE00310549F4888599858017910709F071CFEF
:101DEE00EF85F889E6CF2630310509F06ACF888570
:101DFE0099858017910721F41C86ED89FE89D9CF2C
:101E0E0081E08C87EF89F88D309709F45ACFDF91F6
:101E1E00CF911F910F91FF90EF90DF90CF9009948B
:101E2E000895CF92DF92EF92FF921F93CF93DF939D
:101E3E0010E0C7E0D0E083E2E82EF12CCC24C3946E
:101E4E00D12C60E080E1C2D9C7010197F1F78FE094
:101E5E00C0DA882339F0C6010C2E01C0880F0A940F
:101E6E00EAF7182B61E080E1B1D9C7010197F1F7CC
:101E7E00219738F7812FDF91CF911F91FF90EF902F
:101E8E00DF90CF9008951F93CF93DF93182F60E0CC
:101E9E00DBD983E290E00197F1F7C3DFC82FD0E0E2
:101EAE00DC2FCC27BEDFC82B61E0812FCDD9C2FD40
:101EBE0014C083E0D695C7958A95E1F7BE0190E0F0
:101ECE0080E00E942F3A20E030E040E85EE30E947E
:101EDE00E53ADF91CF911F91089560E070E0CB015C
:101EEE00F8CF8F929F92AF92BF92CF92DF92EF92E6
:101EFE00FF9283E0C8DF4B015C0180920229909231
:101F0E000329A0920429B092052982E0BCDF6B015F
:101F1E007C01C092FE28D092FF28E0920029F09218
:101F2E00012920E030E0A901C501B4010E949239D7
:101F3E00811119C020E030E0A901C701B6010E944D
:101F4E009239811110C080914328882319F081E0C5
:101F5E0080937028FF90EF90DF90CF90BF90AF905E
:101F6E009F908F90089520E030E0A901C501B40143
:101F7E000E94E13A18164CF020E030E0A901C701AA
:101F8E00B6010E94E13A18162CF780914328882357
:101F9E0009F310927028DECF089508958091882855
:101FAE0081115CC080915529882311F180910A28F6
:101FBE0090910B288530910529F09C012D7F2930B9
:101FCE00310541F4019780930A2890930B2882E300
:101FDE0090E038CE2830310521F481E08093D52869
:101FEE00F6CF8091D528882391F31092D528EFCF84
:101FFE0080911C29853018F4815080931C29809182
:10200E001C29823019F481E080931C2980911C29AF
:10201E008530E9F620E030E040E85FE360918F28FC
:10202E007091902880919128909192280E94E13A87
:10203E0087FDCDCF80918D28882349F28091092884
:10204E008111C5CF10928F2810929028109291284E
:10205E001092922881E080938D28B9CF08958091B7
:10206E00882881111EC081E08093CE2820914128BE
:10207E00309142282F5F3F4F2093412830934228C2
:10208E00809140288F5F80934028283532403CF461
:10209E0089313CF00E949E031092402808958A30A8
:1020AE00CCF70895089580918828811161C08091A0
:1020BE005529882309F45AC08091D528811156C01C
:1020CE0080910A2890910B28009739F481E090E0D6
:1020DE0080930A2890930B2808958130910519F466
:1020EE0082E090E0F5CF8230910539F420910D29F0
:1020FE002223F9F081E190E0EBCF8131910519F4C3
:10210E0083E090E0E5CF8330910519F484E090E010
:10211E00DFCF8430910519F486E090E0D9CF20917D
:10212E00CD288630910529F4222319F088E090E01D
:10213E00CFCF2091CD28211109C086309105A4F072
:10214E008D3091051CF48DE090E0C2CF8D3091055D
:10215E0019F48EE090E0BCCF8E30910529F41092E8
:10216E000A2810920B2808950196B2CF0C94DA012A
:10217E0008958091882881111EC081E08093CE2819
:10218E0020914128309142282F5F3F4F20934128C4
:10219E0030934228809140288F5F809340282835C5
:1021AE0032403CF489313CF00E94DA011092402812
:1021BE0008958A30CCF7089508958091882881116A
:1021CE0053C080915529882309F44CC08091D5289D
:1021DE00811148C080910A2890910B28009739F4FC
:1021EE008EE090E080930A2890930B2808958E300D
:1021FE00910519F48DE090E0F5CF8D30910519F42D
:10220E0086E090E0EFCF87309105D1F386309105CF
:10221E0019F484E090E0E6CF8430910519F483E060
:10222E0090E0E0CF8131910519F482E090E0DACFB1
:10223E008230910519F481E090E0D4CF8130910580
:10224E0029F410920A2810920B28089583309105D4
:10225E0039F420910D29222319F081E190E0C2CFAB
:10226E000197C0CF0C949E03089580918828811108
:10227E0016C080911C2981110FC0809155298111A2
:10228E000BC08EE591E08093CF289093D02881E00B
:10229E00809355298093BE2888EC90E0D3CC089586
:1022AE00089589E49BE2AEDC61E085E10C94ED08D3
:1022BE0060E085E10E94ED0880918E28882349F028
:1022CE0080919728909198280196809397289093C3
:1022DE00982880919528909196280196809395281C
:1022EE0090939628089580919A28882351F0809192
:1022FE004D28882319F010924D28089581E080937F
:10230E004D2808953F924F925F926F927F928F92D7
:10231E009F92AF92BF92CF92DF92EF92FF920F9366
:10232E001F93CF93DF93CDB7DEB72E97CDBFDEBF12
:10233E008091BD28882309F42EC180917A2A8823A2
:10234E0009F429C18FD86D837E838F8398878091FE
:10235E00622A9091632AA091642AB091652A4D81D8
:10236E005E816F817885481B590B6A0B7B0B8091C0
:10237E006E2A90916F2AA091702AB091712A4817F7
:10238E0059076A077B0708F406C1E0915C2AF091B1
:10239E005D2A80819181A281B38189839A83AB83E7
:1023AE00BC83E091602AF091612A9C01AD016081AD
:1023BE007181828193810E942D394B015C012091A4
:1023CE006A2A30916B2A40916C2A50916D2A69814C
:1023DE007A818B819C810E942D396B017C01209129
:1023EE00502A3091512A4091522A5091532AC501B8
:1023FE00B4010E94E53A2091662A3091672A4091F5
:10240E00682A5091692A0E942E392B013C01409274
:10241E00662A5092672A6092682A7092692A3090D2
:10242E007B2A31101AC020914C2A30914D2A4091AE
:10243E004E2A50914F2AC701B6010E94E53A9B01E0
:10244E00AC01C301B2010E942D396093662A7093CC
:10245E00672A8093682A9093692A4090662A509042
:10246E00672A6090682A7090692A1091762A909156
:10247E00772A9E87A091782AAD870091792A212FFD
:10248E00392F4A2F502FC301B2010E94E13A18167C
:10249E000CF096C0812F9E85AD85B02F8093662A55
:1024AE009093672AA093682AB093692A332009F47F
:1024BE00A0C020914C2A30914D2A40914E2A509125
:1024CE004F2AC501B4010E94E53A4B015C012091EF
:1024DE00542A3091552A4091562A5091572AC701B5
:1024EE00B6010E94E53A9B01AC016091662A70919B
:1024FE00672A8091682A9091692A0E942D39A50138
:10250E0094010E942E396B017C019B01AC01612F5D
:10251E007E858D85902F0E94923987FD18C010916F
:10252E00722A9091732A9E87A091742AAD8700918A
:10253E00752A212F392F4A2F502FB601C7010E941D
:10254E00923987FD04C01C2DDE86ED860F2DE0919D
:10255E005E2AF0915F2A812F9E85AD85B02F8083F4
:10256E009183A283B38389819A81AB81BC8180934D
:10257E006A2A90936B2AA0936C2AB0936D2A8D8150
:10258E009E81AF81B8858093622A9093632AA0932F
:10259E00642AB093652A2E96CDBFDEBFDF91CF9110
:1025AE001F910F91FF90EF90DF90CF90BF90AF9063
:1025BE009F908F907F906F905F904F903F90089577
:1025CE008091722A9091732AA091742AB091752AE3
:1025DE0089879A87AB87BC879C01AD01C301B20185
:1025EE000E94923987FF62CF89859A85AB85BC851B
:1025FE0055CF812C912C54016ACFE0EDFBE2108275
:10260E0013861486158616861786108A60E085E175
:10261E000C94ED08FC0180819181FC01FF2790FD57
:10262E0006C080E094E1E82BF92B8081089580E0CC
:10263E0093E1F9CFCF93DF9300D0CDB7DEB7898387
:10264E009A83CE010196E6DF0F900F90DF91CF9126
:10265E000895AF92BF92CF92DF92EF92FF920F93B7
:10266E001F93CF93DF9300D0CDB7DEB78B016B01F5
:10267E0024E0C20ED11C7B015C01A61AB70AC5016B
:10268E008E0D9F1D89839A83CE010196C3DFF701BC
:10269E0081937F01EC15FD0591F7C8010F900F9006
:1026AE00DF91CF911F910F91FF90EF90DF90CF9020
:1026BE00BF90AF900895EF92FF920F931F93CF9319
:1026CE00DF9300D0CDB7DEB78C017B0189839A836F
:1026DE00CE0101969FDFF70180830F5F1F4F0983A5
:1026EE001A83CE01019696DFF7018183C7010F9001
:1026FE000F90DF91CF911F910F91FF90EF90089562
:10270E00FC01FF2790FD12C080E094E1E82BF92B2D
:10271E0060838FB7F8949DE923E094BF2093001057
:10272E008FBF8091021081FDFCCF089580E093E170
:10273E00EDCFE6CF1F93CF93DF93EC01162F6ADF19
:10274E00811721F0612F88819981DADFCE01DF9127
:10275E00CF911F910895EF92FF920F931F93CF93F6
:10276E00DF9300D0CDB7DEB786E0E82E89E2F82EF3
:10277E0006E410E009831A83F70161917F01CE010F
:10278E000196D8DF0F5F1F4F0A34110599F786E0C7
:10279E0099E20F900F90DF91CF911F910F91FF90C3
:1027AE00EF900895EF92FF920F931F93CF93DF93C5
:1027BE0000D0CDB7DEB78C017B0189839A83FB01F4
:1027CE006081CE010196B6DF0F5F1F4F09831A831A
:1027DE00F7016181CE010196ADDFC7010F900F9019
:1027EE00DF91CF911F910F91FF90EF9008958091FF
:1027FE0088288111B5C01092CC281092D42810923E
:10280E00CB281092562810925728109260281092BA
:10281E006128109264281092652810925828109200
:10282E00592810925A2810925B281092A3281092C1
:10283E00A42860E080EA90E07CDF68E578E282E33D
:10284E0090E0B0DF6AE578E28CE390E0ABDF809158
:10285E00552981111092552980911C29811122C070
:10286E001092BE2810925529E0910A28F0910B285B
:10287E00E231F10508F02CC0E95BFB4E0C94AD3B48
:10288E00651472147D1488146F146F1491149A14B5
:10289E006F146F146F146F146F14A3146F146F14DE
:1028AE006F14AE14181604F710921C291092BB2840
:1028BE001092BC2881E08093AE28D6CF81E0209183
:1028CE001D2930911E29232B09F480E08093C02806
:1028DE0088EC90E0B7C981E020911F293091202922
:1028EE00232B09F480E08093BF28F2CF81E0209162
:1028FE00212930912229232B09F480E080930D2980
:10290E00E7CF80912329909124298093F6289093E4
:10291E00F728DECF8091292990912A2980930728C4
:10292E0090930828D5CF80912B2990912C298093B4
:10293E00052890930628CCCF81E02091372930913D
:10294E003829232B09F480E080930928C1CF809188
:10295E003F299091402980930B2990930C29B8CF51
:10296E000895AF92BF92CF92DF92EF92FF920F93A4
:10297E001F93CF93DF9300D0CDB7DEB78B016B01E2
:10298E0024E0C20ED11C7B015C01A61AB70AC50158
:10299E008E0D9F1D89839A83F70161917F01CE0170
:1029AE000196C8DEEC14FD0491F7C8010F900F904C
:1029BE00DF91CF911F910F91FF90EF90DF90CF900D
:1029CE00BF90AF9008957F928F929F92AF92BF92D9
:1029DE00CF92DF92EF92FF920F931F93CF93DF93DD
:1029EE0060E08CE00E94ED08E0910A28F0910B283F
:1029FE008091D528882309F4F8C5E231F10508F055
:102A0E0073C0E45FFA4E0C94AD3B1E159A15EA1591
:102A1E00341679167B15CE1622176917D51733186B
:102A2E009F183220FD1847197C197B15CB1A10926E
:102A3E00D4281092D3281092D2281092D1280E9416
:102A4E00E40980E190E08093DE289093DF2829E16D
:102A5E0030E02093E0283093E12822E130E020930B
:102A6E00E2283093E3282FE030E02093E4283093DF
:102A7E00E5282091CF283091D028293131057CF4DA
:102A8E0088E190E08093D6289093D7288093D82819
:102A9E009093D9288093DA289093DB281FC6409113
:102AAE001D2950911E29452B69F58CE090E08093ED
:102ABE00D6289093D72887E190E08093D8289093DA
:102ACE00D9288DE090E08093DA289093DB288AE075
:102ADE0090E08093DC289093DD282333310524F099
:102AEE001092CF281092D028DF91CF911F910F9185
:102AFE00FF90EF90DF90CF90BF90AF909F908F9010
:102B0E007F9008958093D6289093D72847E150E080
:102B1E004093D8285093D9288093DA289093DB28B5
:102B2E008AE190E0D6CF0E94E4091092D428109248
:102B3E00D3281092D12881E190E08093DE289093E3
:102B4E00DF288FE090E08093E0289093E1288CE0DE
:102B5E0090E08093E2289093E32882E290E08093C5
:102B6E00E4289093E5288091CF289091D028893140
:102B7E0091050CF485CF20911F29309120291092B8
:102B8E00D6281092D728232B89F425E130E0209304
:102B9E00D8283093D9282093DA283093DB2828E1DF
:102BAE0030E02093DC283093DD28EDC024E130E0C6
:102BBE002093D8283093D92828E130E02093DA28C2
:102BCE003093DB28EECF0E94E4091092D4281092A5
:102BDE00D3281092D1288CE090E08093DE28909339
:102BEE00DF288DE090E08093E0289093E12885E146
:102BFE0090E08093E2289093E3282FE030E020933A
:102C0E00E4283093E5282091CF283091D02829311F
:102C1E0031050CF435CF4091212950912229109283
:102C2E00D6281092D728452B59F48093D828909304
:102C3E00D9288093DA289093DB2888E190E049CF59
:102C4E0084E190E08093D8289093D92888E190E091
:102C5E008093DA289093DB283CCF1092D4281092E0
:102C6E00D1280E94E4094AE050E04093DE285093B8
:102C7E00DF282DE030E02093E0283093E1288AE130
:102C8E0090E08093E2289093E3286EE070E06093EA
:102C9E00E4287093E5286091CF287091D02869318F
:102CAE0071050CF4EDCEE0912329F0912429409387
:102CBE00D6285093D7282093D8283093D92880939C
:102CCE00DA289093DB2882E090E0EF2B11F481E07C
:102CDE0090E08093DC289093DD28633371050CF02F
:102CEE00FFCE02CF1092D2281092D1280E94E40972
:102CFE008AE090E08093DE289093DF288DE090E0CC
:102D0E008093E0289093E1288AE190E08093E22876
:102D1E009093E32881E090E08093E4289093E52857
:102D2E008091CF289091D02849979CF48091CE28FD
:102D3E00811154C488E190E08093D6289093D728CF
:102D4E008093D8289093D9288093DA289093DB2803
:102D5E0010C080912529909126292AE0289FB00144
:102D6E00299F700D1124072E000C880B990B0E94C1
:102D7E009E068AE090E08093DC289093DD28809177
:102D8E00CF289091D028C3970CF0AACEADCEC1E03B
:102D9E00C093D2281092D4281092D1280E94E40910
:102DAE00C093CD288AE090E08093DE289093DF28B0
:102DBE008DE090E08093E0289093E1288AE190E006
:102DCE008093E2289093E32882E090E08093E428B9
:102DDE009093E5288091CF289091D028499704F5BB
:102DEE008091CE28811115C088E190E08093D8287B
:102DFE009093D9288093DA289093DB288093DC284F
:102E0E009093DD288AE190E08093D6289093D7287E
:102E1E00B6CF89E190E08093CF289093D028F2CF5F
:102E2E006091292970912A29072E000C880B990B85
:102E3E000E949E06E7CF0E94E4098AE090E080930C
:102E4E00DE289093DF288DE090E08093E028909329
:102E5E00E1288AE190E08093E2289093E32882E0D3
:102E6E0090E08093E4289093E5288091CF2890916C
:102E7E00D0284997E4F48091CE28811111C088E1C1
:102E8E0090E08093D8289093D9288093DA28909355
:102E9E00DB288093DC289093DD288EE190E0B4CF80
:102EAE0089E190E08093CF289093D028F6CF60915F
:102EBE002B2970912C29072E000C880B990B0E9440
:102ECE009E06EBCF0E94E4091092CC281092D428D3
:102EDE0081E08093CB286091072870910828072EF7
:102EEE00000C880B990B0E945F068AE190E080939C
:102EFE00DE289093DF288091CF289091D028499793
:102F0E00E4F58091CE28811131C088E190E0809364
:102F1E00D6289093D7288093D8289093D928809339
:102F2E00DA289093DB288091CF289091D028C397F0
:102F3E0024F01092CF281092D0288AE090E080934F
:102F4E00DC289093DD2860912D2970912E29072E73
:102F5E00000C880B990B0E94313A6093C72870932E
:102F6E00C8288093C9289093CA28BECD89E190E0E5
:102F7E008093CF289093D028D6CF80912D299091F1
:102F8E002E292AE0289FB001299F700D1124072EAB
:102F9E00000C880B990B0E949E06C5CF0E94E40977
:102FAE001092CC281092D42881E08093CB28609187
:102FBE00072870910828072E000C880B990B0E9489
:102FCE005F068AE190E08093DE289093DF2880915F
:102FDE00CF289091D028499774F58091CE288111F1
:102FEE0023C088E190E08093D6289093D7288093D1
:102FFE00D8289093D9288093DA289093DB288AE0FA
:10300E0090E08093DC289093DD288091CF289091DA
:10301E00D028C39724F01092CF281092D028609118
:10302E002F297091302993CF89E190E08093CF289A
:10303E009093D028E4CF80912F29909130292AE0C7
:10304E00289FB001299F700D1124072E000C880BAC
:10305E00990B0E949E06D3CF0E94E4096091052829
:10306E0070910628072E000C880B990B0E945F06A4
:10307E008EE190E08093DE289093DF281092CC288A
:10308E001092D42881E08093CB288091CF28909104
:10309E00D0284997E4F58091CE28811131C088E17E
:1030AE0090E08093D6289093D7288093D828909339
:1030BE00D9288093DA289093DB288AE090E08093D9
:1030CE00DC289093DD288091CF289091D028C3974B
:1030DE0024F01092CF281092D0286091312970914F
:1030EE003229072E000C880B990B0E94313A6093FF
:1030FE00C3287093C4288093C5289093C628F4CC17
:10310E0089E190E08093CF289093D028D6CF8091FC
:10311E003129909132292AE0289FB001299F700D04
:10312E001124072E000C880B990B0E949E06C5CF0A
:10313E000E94E4096091052870910628072E000C64
:10314E00880B990B0E945F068EE190E08093DE283B
:10315E009093DF281092CC281092D42881E080938F
:10316E00CB288091CF289091D028499774F58091E3
:10317E00CE28811123C088E190E08093D6289093C9
:10318E00D7288093D8289093D9288093DA289093C3
:10319E00DB288AE090E08093DC289093DD288091F4
:1031AE00CF289091D028C39724F01092CF28109258
:1031BE00D028609133297091342993CF89E190E022
:1031CE008093CF289093D028E4CF8091332990918B
:1031DE0034292AE0289FB001299F700D1124072E53
:1031EE00000C880B990B0E949E06D3CF1092D2280A
:1031FE001092D4281092D3281092D1280E94E4095C
:10320E004FE050E04093DE285093DF2824E130E079
:10321E002093E0283093E12881E190E08093E2282A
:10322E009093E3288BE190E08093E4289093E52837
:10323E008091CF289091D028893191050CF420CC23
:10324E006091372970913829672B89F04093D628E1
:10325E005093D7282093D8283093D9282EE030E0E9
:10326E002093DA283093DB282AE130E09ACC20E252
:10327E0030E02093D6283093D7282CE030E0EACFE8
:10328E001092D2281092D4281092D3281092D128BE
:10329E000E94E4098CE090E08093DE289093DF2872
:1032AE002CE130E02093E0283093E12841E150E01A
:1032BE004093E2285093E3282FE030E02093E42857
:1032CE003093E5284093D6285093D7282093D828BA
:1032DE003093D9288093DA289093DB2880E190E010
:1032EE008093DC289093DD284AC11092D228109248
:1032FE00D4281092D3281092D1280E94E4098091EC
:10330E00C1289091C2288F319105B8F461E085E112
:10331E000E94ED0886E190E08093DE289093DF28EE
:10332E008093E0289093E1288093E2289093E328FD
:10333E008093E4289093E528A5CB9C01295231096E
:10334E002238310578F560E085E10E94ED0881E1D3
:10335E0090E08093DE289093DF288FE090E08093BA
:10336E00E0289093E1282CE030E02093E22830937F
:10337E00E32820E130E02093E4283093E52820E292
:10338E0030E02093D6283093D72827E130E02093E1
:10339E00D8283093D92824E130E02093DA283093CE
:1033AE00DB289CC18B3A91050CF49ECB81E0809377
:1033BE00C0281092BF2810920D294CE251E0409384
:1033CE000B2950930C291092F6281092F728109280
:1033DE000629109207291092082910920929109295
:1033EE00FD288093F8281092B7280EE110E020E017
:1033FE0030E00093F2281093F3282093F4283093B2
:10340E00F52804E510E020E030E00093EE2810935C
:10341E00EF282093F0283093F1280CE110E020E003
:10342E0030E00093EA281093EB282093EC28309399
:10343E00ED2802E510E020E030E00093E62810933E
:10344E00E7282093E8283093E92800E010E026E1F1
:10345E0033E40093162810931728209318283093DE
:10346E00192810921A2810921B2810921C281092BC
:10347E001D2810921E2810921F281092202810929C
:10348E0021281092552921E030E020931D293093F8
:10349E001E2910921F291092202910922129109274
:1034AE002229109223291092242940933D295093CA
:1034BE003E2980930928209337293093382960E0DC
:1034CE0082E090E036D961E088EC90E032D96CE28F
:1034DE0089EC90E02ED96091C02890E080E029D947
:1034EE0060E087E390E025D961E08FE090E021D99C
:1034FE0060E085E090E01DD92ED960E087E090E095
:10350E0018D961E088E090E014D960E089E090E09D
:10351E0010D962EF78E280E590E023DA6EEE78E281
:10352E008AE590E01EDA6AEE78E284E690E019DA37
:10353E0066EE78E28EE690E014DA60E080EA90E0E3
:10354E00F8D860E086E990E0F4D860E087E990E092
:10355E00F0D860E084EB90E0ECD860E088E990E091
:10356E00E8D860E089E990E0E4D860E08AE990E08C
:10357E00E0D860E08BE990E0DCD81092D52810926C
:10358E00C1281092C228B0CA0E94E4091092D42811
:10359E001092D1288CE090E08093DE289093DF2863
:1035AE008DE090E08093E0289093E12885E190E013
:1035BE008093E2289093E3288FE090E08093E428B4
:1035CE009093E5288091CF289091D02849970CF4BC
:1035DE00ADCB80913F2990914029BFCB89E190E0FE
:1035EE008093CF289093D028C4CBE231F10508F018
:1035FE007BCAEC5FF44E0C94AD3B161B7A1BCE1BB4
:10360E00071C501C7B15931CCF1C001DD31D871E41
:10361E003C1FF21F36206B207B157B15A8201092C5
:10362E00D4281092D3281092D2281092D12810921A
:10363E00642B10926F2B1092702B1092712B109294
:10364E00722B1092732B1092742B90E080E00E94DC
:10365E00211391E0811101C090E09093C02820E1E8
:10366E0030E02093DE283093DF2849E150E040938C
:10367E00E0285093E12842E150E04093E228509335
:10368E00E3284FE050E04093E4285093E528811161
:10369E0015C08CE090E08093D6289093D72887E1D0
:1036AE0090E08093D8289093D9288DE090E0809375
:1036BE00DA289093DB288AE090E010C02093D62879
:1036CE003093D72887E190E08093D8289093D9281B
:1036DE002093DA283093DB288AE190E08093DC286F
:1036EE009093DD2801CA1092642B10926F2B1092CA
:1036FE00702B1092712B1092722B1092732B1092C2
:10370E00742B1092D4281092D3281092D228109293
:10371E00D12887E390E00E94211391E0811101C02E
:10372E0090E09093BF2821E130E02093DE28309383
:10373E00DF282FE030E02093E0283093E1282CE0C2
:10374E0030E02093E2283093E32822E230E0209309
:10375E00E4283093E5281092D6281092D7288111AC
:10376E000DC085E190E08093D8289093D92880935E
:10377E00DA289093DB2888E190E0B0CF84E190E0E6
:10378E008093D8289093D92888E190E083C910922D
:10379E00642B10926F2B1092702B1092712B109233
:1037AE00722B1092732B1092742B1092D4281092AD
:1037BE00D3281092D2281092D1288CE090E08093DA
:1037CE00DE289093DF288DE090E08093E0289093A0
:1037DE00E12885E190E08093E2289093E3288FE042
:1037EE0090E08093E4289093E52882E090E00E9498
:1037FE00211391E0811101C090E090930D29ABCF80
:10380E001092D4281092D2281092D12885E090E000
:10381E000E94211390E08093F6289093F72810923F
:10382E00642B10926F2B1092702B1092712B1092A2
:10383E00722B1092732B1092742B6AE070E06093CF
:10384E00DE287093DF284DE050E04093E02850933F
:10385E00E1282AE130E02093E2283093E328EEE0DD
:10386E00F0E0E093E428F093E5286093D628709377
:10387E00D7284093D8285093D9282093DA2830930C
:10388E00DB28892B19F082E090E028CF81E090E0D0
:10389E0025CF1092D2281092D1281092642B10921C
:1038AE006F2B1092702B1092712B1092722B109214
:1038BE00732B1092742BCAE0D0E0C093DE28D09305
:1038CE00DF288DE090E08093E0289093E1288AE154
:1038DE0090E08093E2289093E32881E090E080933B
:1038EE00E4289093E52820E030E040E251E4609136
:1038FE000E2870910F2880911028909111280E9407
:10390E00E53A0E94FE390E949E061092D428C0937A
:10391E00DC28D093DD28E8C881E08093D22810926D
:10392E00D4281092D1281092642B10926F2B1092E3
:10393E00702B1092712B1092722B1092732B10927F
:10394E00742B8AE090E08093DE289093DF288DE040
:10395E0090E08093E0289093E128CAE1D0E0C093F4
:10396E00E228D093E32882E090E08093E4289093BD
:10397E00E5286091072870910828072E000C880B07
:10398E00990B0E949E06C093D628D093D728ACC818
:10399E001092642B10926F2B1092702B1092712B31
:1039AE001092722B1092732B1092742BCAE0D0E0EF
:1039BE00C093DE28D093DF288DE090E08093E0283E
:1039CE009093E1288AE190E08093E2289093E32897
:1039DE0082E090E08093E4289093E528609105289A
:1039EE0070910628072E000C880B990B0E949E06DC
:1039FE008ECF1092D22881E08093CB281092CC28C3
:103A0E001092D4281092D1281092642B10926F2B02
:103A1E001092702B1092712B1092722B1092732B9E
:103A2E001092742B6091292970912A29072E000C6F
:103A3E00880B990B0E94313A6093342A7093352A81
:103A4E008093362A9093372A61E081E20E94ED0836
:103A5E00772473947EE1E72EF12CEFE0CE2ED12C5D
:103A6E00FDE0AF2EB12CA0E18A2E912CC8E1D0E062
:103A7E000AE110E02091342A3091352A4091362AFD
:103A8E005091372A60913C2A70913D2A80913E2AAE
:103A9E0090913F2A0E94923987FF62C08091BE2882
:103AAE00882309F45DC00E94480560912929709110
:103ABE002A29072E000C880B990B0E94313A60932D
:103ACE00342A7093352A8093362A9093372A70922F
:103ADE00BD280E94450A60E08BE10E94ED088EE24F
:103AEE009BE20E94AB0D8091CF289091D028893116
:103AFE009105FCF4C093D628D093D728C093D8282C
:103B0E00D093D928C093DA28D093DB28C093DC2831
:103B1E00D093DD286091072870910828072E000C9D
:103B2E00880B990B0E945F060093DE281093DF2806
:103B3E00A1CFE092D628F092D728C092D828D09262
:103B4E00D928A092DA28B092DB288092DC289092B5
:103B5E00DD28C397FCF21092CF281092D028DACF2E
:103B6E0060E081E20E94ED088EE190E08093BB2838
:103B7E009093BC281092B9281092BA2881E08093B5
:103B8E00B82880910A2890910B28019680930A28D4
:103B9E0090930B280C947B1561E081E20E94ED0856
:103BAE00DD24D3946AE1E62EF12CC8E1D0E00AE0E0
:103BBE0010E0C090B8288091D52881118FC08091D7
:103BCE00BE28882309F48AC0CC2009F487C00E943D
:103BDE0048056091292970912A29072E000C880B1F
:103BEE00990B0E94313A6093342A7093352A809350
:103BFE00362A9093372A8EE29BE20E94AB0DD0922A
:103C0E00BD280E94450A60E08AE10E94ED0861E04D
:103C1E008BE10E94ED086091072870910828072E0D
:103C2E00000C880B990B0E945F06E092DE28F09242
:103C3E00DF28D092CB281092CC288091B928909171
:103C4E00BA289C012150310961E02336310538F044
:103C5E009C012456310924363105E8F460E085E1F3
:103C6E000E94ED08A090CF28B090D02889E1A81628
:103C7E00B104CCF4C093D628D093D728C093D828BB
:103C8E00D093D928C093DA28D093DB280093DC2870
:103C9E001093DD288ECF893C910524F31092B9281C
:103CAE001092BA28DFCF20E030E040E251E460917C
:103CBE000E2870910F2880911028909111280E9443
:103CCE00E53A0E94FE390E949E0683E3A816B104CF
:103CDE00ECF21092CF281092D028D8CF60E081E27B
:103CEE000E94ED0888E090E0C11050CF8AE090E08D
:103CFE0080930A2890930B281092D5280C947B154C
:103D0E001092D2281092D4281092CC2881E0809361
:103D1E00CB281092D12860912B2970912C29072E37
:103D2E00000C880B990B0E94313A6093342A7093E1
:103D3E00352A8093362A9093372A61E081E20E94D9
:103D4E00ED08992493940EE110E03FE0E32EF12C60
:103D5E004DE0C42ED12C50E1A52EB12CC8E1D0E0FF
:103D6E002091342A3091352A4091362A5091372AA3
:103D7E0060913C2A70913D2A80913E2A90913F2A73
:103D8E000E94923987FF62C08091BE28882309F471
:103D9E005DC00E94480560912B2970912C29072E39
:103DAE00000C880B990B0E94313A6093342A709361
:103DBE00352A8093362A9093372A9092BD280E94F6
:103DCE00450A8EE29BE20E94AB0D60E08BE10E9401
:103DDE00ED088091CF289091D02889319105FCF47F
:103DEE00C093D628D093D728C093D828D093D9285B
:103DFE00C093DA28D093DB28C093DC28D093DD283B
:103E0E006091052870910628072E000C880B990BDF
:103E1E000E945F060093DE281093DF28A1CF009347
:103E2E00D6281093D728E092D828F092D928C0929D
:103E3E00DA28D092DB28A092DC28B092DD28C39736
:103E4E00FCF21092CF281092D028DACF60E081E2F7
:103E5E000E94ED081092B9281092BA288EE190E0D7
:103E6E008093BB289093BC2889CE61E081E20E94AA
:103E7E00ED08DD24D3942EE1E22EF12CC8E1D0E042
:103E8E000AE010E0C090B8288091D52881118DC02D
:103E9E008091BE28882309F488C0CC2009F485C0FF
:103EAE000E94480560912B2970912C29072E000C39
:103EBE00880B990B0E94313A6093342A7093352AFD
:103ECE008093362A9093372AD092BD280E94450AB5
:103EDE008EE29BE20E94AB0D60E08AE10E94ED084B
:103EEE0061E08BE10E94ED08609105287091062833
:103EFE00072E000C880B990B0E945F06E092DE28BD
:103F0E00F092DF281092D1288091B9289091BA288A
:103F1E009C012150310961E02336310538F09C01B6
:103F2E002456310924363105E8F460E085E10E941B
:103F3E00ED08A090CF28B090D02889E1A816B10442
:103F4E00CCF4C093D628D093D728C093D828D0933A
:103F5E00D928C093DA28D093DB280093DC2810935D
:103F6E00DD2890CF893C910524F31092B928109248
:103F7E00BA28DFCF20E030E040E251E460910E2815
:103F8E0070910F2880911028909111280E94E53A87
:103F9E000E94FE390E949E0683E3A816B104ECF23D
:103FAE001092CF281092D028D8CF60E081E20E94E4
:103FBE00ED081092342A1092352A1092362A109259
:103FCE00372A1092BD28CC2019F08AE090E0DECD81
:103FDE001092552991CE1092D3281092D428109277
:103FEE00D2281092D1281092CB288091CF28909170
:103FFE00D028883C91056CF58AE090E08093DE280D
:10400E009093DF288DE090E08093E0289093E12854
:10401E008AE190E08093E2289093E3288EE090E08E
:10402E008093E4289093E52880E290E08093D62850
:10403E009093D72887E190E08093D8289093D92841
:10404E0084E190E08093DA289093DB2883E190E07E
:10405E0045CB1092D528109255290C947B151092B1
:10406E00D2281092D4281092D3281092D1280E94D0
:10407E00E4098FE090E08093DE289093DF2824E11E
:10408E0030E02093E0283093E12821E130E02093C6
:10409E00E2283093E3282BE130E02093E42830939C
:1040AE00E52822E130E02093D6283093D72827E167
:1040BE0030E02093D8283093D92820E230E02093A6
:1040CE00DA283093DB280CC91092D2281092D4280B
:1040DE001092D3281092D1281092642B10926F2B2D
:1040EE001092702B1092712B1092722B1092732BC8
:1040FE001092742B85E190E08093DE289093DF2858
:10410E008DE090E08093E0289093E1288AE090E0A3
:10411E008093E2289093E32880E190E08093E42856
:10412E009093E52821E130E02093D6283093D728CC
:10413E002FE030E02093D8283093D9282CE030E0BF
:10414E002CC91092D2281092D4281092D1281092F5
:10415E00642B10926F2B1092702B1092712B109269
:10416E00722B1092732B1092742B88EC90E00E949D
:10417E002113C82F89EC90E00E9421132C2F30E0E0
:10418E00322F2227820F932F911D80930B2990930C
:10419E000C292CE030E02093DE283093DF282DE030
:1041AE0030E02093E0283093E12825E130E02093A1
:1041BE00E2283093E3282FE030E02093E428309378
:1041CE00E5282AE0289FB001299F700D1124072EA3
:1041DE00000C880B990B0E949E066DCA4F925F923F
:1041EE006F927F928F929F92AF92BF92CF92DF92F9
:1041FE00EF92FF920F931F93CF93DF9300D0CDB723
:10420E00DEB78091882881114FC01092CE2810926F
:10421E00B9281092BA2880915529811158C0109250
:10422E00CF281092D02880911C29813051F42091F2
:10423E00102930911129232B21F4909109289923CB
:10424E0019F08F5F80931C2980911C29823019F4FC
:10425E0083E080931C2980911C29853074F0809115
:10426E00AC2881110AC085E080931C2980910A290F
:10427E00882309F49CC210920A2980911C2985304A
:10428E000CF499C200919B2810919C2810161106CF
:10429E000CF491C288EE93E00E94290E0F5F1F4F1F
:1042AE0000939B2810939C280F900F90DF91CF9135
:1042BE001F910F91FF90EF90DF90CF90BF90AF9036
:1042CE009F908F907F906F905F904F900895009188
:1042DE000A2810910B288091D5288111ABC0198224
:1042EE001A82CE0101960E941113B82E8093C02817
:1042FE0090E080931D2990931E298091BF2890E015
:10430E0080931F299093202980910D2990E080930E
:10431E0021299093222980910B2990910C29809329
:10432E003F29909340298091092890E08093372966
:10433E00909338298091F6289091F728809323291D
:10434E0090932429C0900E28D0900F28E09010282A
:10435E00F0901128C701B6010E94FE392B0160931F
:10436E0025297093262920E030E040E251E4C70170
:10437E00B6010E94E53A0E94FE3960933E28709382
:10438E003F2820910728309108282093292930931F
:10439E002A29209105283091062820932B29309325
:1043AE002C2940922D2950922E29CB016AE070E0E3
:1043BE000E945C3B80932F29909330290930110580
:1043CE0009F5C0923A28D0923B28E0923C28F09210
:1043DE003D2840923129509232298093332990936F
:1043EE00342901311105D1F41092C1281092C2283E
:1043FE0081E08093D5288AE190E08093CF28909336
:10440E00D02829CF0B30110521F7C0923628D09233
:10441E003728E0923828F0923928DBCFB110E8CF58
:10442E000530110529F784E090E080930A289093D7
:10443E000B28DECF0231110508F04BC0F801E65D06
:10444E00FD4D0C94AD3B3C224B229122AB22B62269
:10445E0070220B23142370222D233E2370227022F0
:10446E009E22702270227022B72361E080911D2956
:10447E0090911E29892B09F460E06093C02890E08A
:10448E0080E00E94A01325C000911F2910912029C1
:10449E0061E00115110509F460E06093BF2887E320
:1044AE0090E00E94A013012BA1F4109258281092B4
:1044BE00592810925A2810925B2868E578E282E318
:1044CE0090E00E94D9136AE578E28CE390E00E94B6
:1044DE00D91380910A2890910B288830910509F004
:1044EE004FC189E090E080930A2890930B28809129
:1044FE000A2890910B289C01277F2630310509F060
:10450E0045C121E02093D528019680930A289093E7
:10451E000B2871CF61E08091212990912229892B5E
:10452E0009F460E060930D2982E090E0AACF61E08B
:10453E008091372990913829892B09F460E0609396
:10454E0009288FE090E09DCF609123298091242946
:10455E006093F6288093F72885E090E092CF209123
:10456E002529309126294AE0429FC001439F900D94
:10457E00112420913E2830913F28821B930B6AE034
:10458E0070E00E945C3B072E000C880B990B0E947A
:10459E00313A4B015C018092F9289092FA28A09250
:1045AE00FB28B092FC2811E01093F82820E030E0B0
:1045BE0040E251E40E94E53A6B017C0120E030E0DC
:1045CE00A901C501B4010E94923987FF1AC0109348
:1045DE00FD28F7FAF094F7F8F094C0920629D092DD
:1045EE000729E0920829F09209290E94B2136091DE
:1045FE00FD2887E090E00E94A01361E088E090E043
:10460E0040CF1092FD28E9CF8091292990912A2937
:10461E0080930728909308285CCF80912B29909146
:10462E002C29809305289093062880910E2890912E
:10463E000F28A0911028B091112880933A289093BA
:10464E003B28A0933C28B0933D2843CF80910E2861
:10465E0090910F28A0911028B091112880933628A0
:10466E0090933728A0933828B093392832CF20E082
:10467E0030E040E251E460913A2870913B288091FD
:10468E003C2890913D280E94E53A0E94FE396093A5
:10469E00F2287093F3288093F4289093F52820E065
:1046AE0030E040E251E460913628709137288091D5
:1046BE003828909139280E94E53A0E94FE3960937D
:1046CE00EE287093EF288093F0289093F12862EFF4
:1046DE0078E280E590E00E94B8146EEE78E28AE50A
:1046EE0090E00E94B81420E030E040E251E4609186
:1046FE00C7287091C8288091C9289091CA280E9415
:10470E00E53A0E94FE396093EA287093EB28809375
:10471E00EC289093ED2820E030E040E251E46091E7
:10472E00C3287091C4288091C5289091C6280E94F4
:10473E00E53A0E94FE396093E6287093E72880934D
:10474E00E8289093E9286AEE78E284E690E00E94E9
:10475E00B81466EE78E28EE690E00E94B814B9CEF8
:10476E0010913F296091402910930B2960930C29D9
:10477E0088EC90E00E94A013612F89EC90E081CE2E
:10478E000A9709F0B4CE8BE090E0ADCE843091055F
:10479E0041F08730910529F09C012D7F293031059C
:1047AE0019F41092D528B0CE1092D52824CE81E0DF
:1047BE0080930A2962CD82E390E00E94290E74CD87
:1047CE00DC01ED91FC910488F589E02D23E030E0C9
:1047DE000994EF92FF920F931F93CF93DF93E82EDE
:1047EE00F62ED0E0C0E0042F10E0B8010C2E02C06F
:1047FE00759567950A94E2F761708E2D0E942B09CC
:10480E0061E08F2D0E942B0960E08F2D0E942B09F5
:10481E002196C830D10549F7DF91CF911F910F91A5
:10482E00FF90EF9008950F931F93CF93DF9389ED31
:10483E009AE20E94460E8AEB9AE20E94460E8BE99D
:10484E009AE20E94460E8CE79AE20E94460E61E0C2
:10485E008BE00E942B0961E08AE00E942B0961E047
:10486E0089E00E942B0961E088E00E942B0960E03C
:10487E0083E10E942B092091D228809132289091B9
:10488E003328222331F0E091D628F091D7280097D3
:10489E00C1F02091D428222339F0E091D828F0914C
:1048AE00D9288130910569F02091CC28222309F472
:1048BE0083C08230910509F07FC0E091DA28F09133
:1048CE00DB28EC5EF7444081416064E182E181DFE8
:1048DE00C0913228D0913328FE01EE0FFF1FEC5FFE
:1048EE00F74460E080810E942B0961E083E10E9421
:1048FE002B092196C430D1050CF06AC0C093322822
:10490E00D093332861E084E00E942B0961E085E0BA
:10491E000E942B0961E086E00E942B0961E087E08E
:10492E000E942B0960E080E20E942B09C09134287E
:10493E00D09135288091CB288E01000F111F88232E
:10494E0031F0E091DE28F091DF282097B1F08091D0
:10495E00D328882339F0E091E028F091E128C13086
:10496E00D10559F08091D1288823B9F1C230D105F3
:10497E00A1F5E091E228F091E328EC5EF744408146
:10498E0041606EE18FE125DFF801E45FF74460E0FE
:10499E0080810E942B0961E080E20E942B09219602
:1049AE00C430D10524F5C0933428D0933528DF9137
:1049BE00CF911F910F910895880F991FFC01EA5214
:1049CE00F74D0190F081E02DEC5EF74440817DCFF4
:1049DE00109232281092332895CFF801E252F74DFB
:1049EE000190F081E02DEC5EF7444081CACF109229
:1049FE003428109235281092322810923328D7CFAF
:104A0E001F920F920FB60F9211242F933F934F9335
:104A1E005F936F937F938F939F93AF93BF93EF9318
:104A2E00FF9386E599E20E94A307FF91EF91BF9154
:104A3E00AF919F918F917F916F915F914F913F9128
:104A4E002F910F900FBE0F901F9018951F920F92DF
:104A5E000FB60F9211242F938F939F93EF93FF9383
:104A6E00E0916229F0916329818181FD1BC09081C3
:104A7E0080916C298F5F8F7320916D29821741F081
:104A8E00E0916C29F0E0EA5AF64D958F80936C29EF
:104A9E00FF91EF919F918F912F910F900FBE0F90DD
:104AAE001F9018958081F4CF1F920F920FB60F9220
:104ABE0011248F939F93AF93BF938091452890912C
:104ACE004628A0914728B09148280196A11DB11DF6
:104ADE008093452890934628A0934728B093482862
:104AEE0081E08093A60ABF91AF919F918F910F9015
:104AFE000FBE0F901F9018951F920F920FB60F9228
:104B0E0011244F925F926F927F928F929F92AF92EB
:104B1E00BF92CF92DF92EF92FF922F933F934F93DC
:104B2E005F936F937F938F939F93AF93BF93EF9307
:104B3E00FF9380ED9BE20E94AB0D85EB9BE20E9402
:104B4E00AB0D82E79CE20E94AB0D20E030E043EC1F
:104B5E0053E460911228709113288091142890913B
:104B6E0015280E94E13A87FD05C060E088E10E94A9
:104B7E00ED0808C080910928811184C08AE99BE262
:104B8E000E94AB0D84E69BE20E94AB0D89E49BE292
:104B9E000E94AB0D8FE79BE20E94AB0D8BEE9BE26A
:104BAE000E94AB0D81E29CE20E94AB0D8091CF285A
:104BBE009091D02801968093CF289093D028809101
:104BCE00B828882321F18091AA289091AB280196CC
:104BDE008093AA289093AB28803B9E40C1F480918D
:104BEE0066288111BEC08091BB289091BC28019788
:104BFE008093BB289093BC281092AA281092AB28C1
:104C0E00892B29F481E08093AE281092B8288091E8
:104C1E00C1289091C22801968093C1289093C228F2
:104C2E008091B9289091BA2801968093B9289093D3
:104C3E00BA2880912F2890913028019680932F28A2
:104C4E009093302881E080930B0AFF91EF91BF91F2
:104C5E00AF919F918F917F916F915F914F913F9106
:104C6E002F91FF90EF90DF90CF90BF90AF909F90DD
:104C7E008F907F906F905F904F900F900FBE0F9020
:104C8E001F90189580911C29853009F07BCF80915B
:104C9E00A728882309F469CF8A3011F461E066CF22
:104CAE0024E08202C0011124FC01E452F844C080C9
:104CBE00D180E280F3808C549844FC014080518076
:104CCE0062807380C0922B28D0922C28E0922D28DF
:104CDE00F0922E2840922728509228286092292858
:104CEE0070922A288090222890902328A090242821
:104CFE00B09025288091262881111AC00E94390A69
:104D0E00681979098A099B09641575058605970541
:104D1E0008F42BCF81E0809326280E94390A6093F5
:104D2E0022287093232880932428909325281DCF22
:104D3E000E94390A681979098A099B096C157D0543
:104D4E008E059F0508F4AACF109226280E94390AD4
:104D5E0060932228709323288093242890932528EB
:104D6E009DCF8091A5289091A62801968093A52885
:104D7E009093A6281092AA281092AB2880379741BC
:104D8E0008F445CF1092A5281092A6283BCF4F923B
:104D9E005F926F927F928F929F92AF92BF92CF92BD
:104DAE00DF92EF92FF92CF93DF93109258291092D9
:104DBE00592988EE93E0A0E0B0E080935A299093B1
:104DCE005B29A0935C29B0935D292FED38EB2093DE
:104DDE0056293093572920E438E0209362293093E6
:104DEE00632923E22093642922E2209365291092FD
:104DFE00662927E22093672926E22093682920E17D
:104E0E002093692910926A2910926B2910926C29AD
:104E1E0010926D2910926E2910926F2920E2209324
:104E2E007029109271291092722924E02093332A4E
:104E3E0021E22093322A1092F8291092F729C1E02C
:104E4E00D0E0C093452CD093462C44EF51E060E067
:104E5E0070E040933D2C50933E2C60933F2C70930A
:104E6E00402C1092412C1092422C1092432C1092F6
:104E7E00442C2DE931E020934D2C30934E2C109282
:104E8E003C2C10924F2C1092502C1092512C1092B0
:104E9E00522C1092472C1092482C1092492C1092A2
:104EAE004A2CC093602CD093612C40E355E760E010
:104EBE0070E04093582C5093592C60935A2C709359
:104ECE005B2C10925C2C10925D2C10925E2C10922A
:104EDE005F2C28EA31E02093682C3093692C1092D5
:104EEE00572C10926A2C10926B2C10926C2C1092E4
:104EFE006D2C1092622C1092632C1092642C1092D6
:104F0E00652CC0937B2CD0937C2C8093732C909328
:104F1E00742CA093752CB093762C1092772C109243
:104F2E00782C1092792C10927A2C8FEC91E0809341
:104F3E00832C9093842C1092722C1092852C1092AC
:104F4E00862C1092872C1092882C10927D2C109209
:104F5E007E2C10927F2C1092802C1092F42B10929B
:104F6E00F52B80E8C82E84E8D82E8EE1E82EF12CA1
:104F7E00C092EC2BD092ED2BE092EE2BF092EF2B19
:104F8E001092F02B1092F12B1092F22B1092F32B19
:104F9E0088E79FE08093FC2B9093FD2B1092EB2BD8
:104FAE001092FE2B1092FF2B1092002C1092012CBF
:104FBE001092F62B1092F72B1092F82B1092F92BD1
:104FCE0010920F2C1092102C80EC96ECADE2B0E00B
:104FDE008093072C9093082CA093092CB0930A2C45
:104FEE0010920B2C10920C2C10920D2C10920E2C49
:104FFE0087E19FE08093172C9093182C1092062C2B
:10500E001092192C10921A2C10921B2C10921C2CF0
:10501E001092112C1092122C1092132C1092142C00
:10502E0010922A2C10922B2C80E49BE4ACE4B0E07E
:10503E008093222C9093232CA093242CB093252C78
:10504E0041E050E060E070E04093262C5093272C16
:10505E006093282C7093292C89E991E08093322C4F
:10506E009093332C1092212C1092342C1092352CBC
:10507E001092362C1092372C10922C2C10922D2C24
:10508E0010922E2C10922F2C1092D92B1092DA2BCC
:10509E0090EA892E96E8992EAA24A394B12C809298
:1050AE00D12B9092D22BA092D32BB092D42B409393
:1050BE00D52B5093D62B6093D72B7093D82B84E09F
:1050CE0093E18093E12B9093E22B1092D02B1092D0
:1050DE00E32B1092E42B1092E52B1092E62B1092FC
:1050EE00DB2B1092DC2B1092DD2B1092DE2B10920C
:1050FE00BE2B1092BF2B80E492E4AFE0B0E0809321
:10510E00B62B9093B72BA093B82BB093B92B1092CC
:10511E00BA2B1092BB2B1092BC2B1092BD2B2AE7F0
:10512E0031E12093C62B3093C72B1092B52B1092E2
:10513E00C82B1092C92B1092CA2B1092CB2B109207
:10514E00C02B1092C12B1092C22B1092C32B109217
:10515E00A32B1092A42B20E8422E2AE1522E26E0F9
:10516E00622E712C40929B2B50929C2B60929D2B09
:10517E0070929E2B10929F2B1092A02B1092A12B0F
:10518E001092A22B29E831E12093AB2B3093AC2B5C
:10519E0010929A2B1092AD2B1092AE2B1092AF2B29
:1051AE001092B02B1092A52B1092A62B1092A72B1B
:1051BE001092A82B1092882B1092892B8092802B04
:1051CE009092812BA092822BB092832B1092842BE3
:1051DE001092852B1092862B1092872B23ED3FE099
:1051EE002093902B3093912B10927F2B1092922B19
:1051FE001092932B1092942B1092952B10928A2B27
:10520E0010928B2B10928C2B10928D2B10926D2B4B
:10521E0010926E2BC092652BD092662BE092672B6C
:10522E00F092682B1092692B10926A2B10926B2BB6
:10523E0010926C2B28E531E12093752B3093762B51
:10524E001092642B1092772B1092782B1092792B50
:10525E0010927A2B10926F2B1092702B1092712B42
:10526E001092722B1092522B1092532B80934A2B2A
:10527E0090934B2BA0934C2BB0934D2B40934E2BD6
:10528E0050934F2B6093502B7093512B2FE531E1A0
:10529E0020935A2B30935B2B1092492B10925C2B40
:1052AE0010925D2B10925E2B10925F2B1092542B4E
:1052BE001092552B1092562B1092572B22E030E065
:1052CE002093372B3093382B40EA5FE060E070E09C
:1052DE0040932F2B5093302B6093312B7093322BA6
:1052EE001092332B1092342B1092352B1092362BAA
:1052FE002AE134E220933F2B3093402B10922E2B39
:10530E001092412B1092422B1092432B1092442B51
:10531E001092392B10923A2B10923B2B10923C2B61
:10532E0010921C2B10921D2B8093142B9093152BE7
:10533E00A093162BB093172B1092182B1092192B9B
:10534E0010921A2B10921B2B2AE731E02093242B5C
:10535E003093252B1092132B1092262B1092272B65
:10536E001092282B1092292B10921E2B10921F2B6D
:10537E001092202B1092212B1092012B1092022BA7
:10538E008093F92A9093FA2AA093FB2AB093FC2AD1
:10539E001092FD2A1092FE2A1092FF2A1092002BD4
:1053AE0088E991E08093092B90930A2B1092F82AAA
:1053BE0010920B2B10920C2B10920D2B10920E2B79
:1053CE001092032B1092042B1092052B1092062B89
:1053DE0063E270E089ED9AE20E942F0965E270E0C7
:1053EE008AEB9AE20E942F0964E270E08BE99AE25E
:1053FE000E942F0962E270E08CE79AE20E942F0968
:10540E00C0901E28D0901F28E0902028F0902128D0
:10541E0080901A2890901B28A0901C28B0901D28D0
:10542E0040901628509017286090182870901928D0
:10543E0088E39AE280935E2A90935F2A8CE39AE245
:10544E0080935C2A90935D2A84E39AE28093602A8B
:10545E009093612A10927A2A1092722A1092732ACD
:10546E001092742A1092752A80E090E0AFE7B3E4B0
:10547E008093762A9093772AA093782AB093792AEC
:10548E0084E690E0A0E0B0E080936E2A90936F2ABD
:10549E00A093702AB093712A1092582A1092592A0A
:1054AE0020E030E0A901C301B2010E94923987FDCC
:1054BE0059C020E030E0A901C501B4010E94923923
:1054CE0087FD50C020E030E0A901C701B6010E945F
:1054DE00923987FD47C0C0935A2AD0935B2A81E048
:1054EE0080937B2A4092402A5092412A6092422A0F
:1054FE007092432A8092442A9092452AA092462A7C
:10550E00B092472AC092482AD092492AE0924A2A5B
:10551E00F0924B2A40924C2A50924D2A60924E2A7B
:10552E0070924F2A2DEC3CEC4CEC5DE3C501B401BE
:10553E000E94E53A6093502A7093512A8093522A22
:10554E009093532A2DEC3CEC4CEC5DE3C701B60175
:10555E000E9496396093542A7093552A8093562A46
:10556E009093572A0E94390AC0906E2AD0906F2AC3
:10557E00E090702AF090712A6C197D098E099F09AE
:10558E006093622A7093632A8093642A9093652AAB
:10559E00DF91CF91FF90EF90DF90CF90BF90AF90C3
:1055AE009F908F907F906F905F904F900895CF93C4
:1055BE00DF9300D0CDB7DEB788ED90E084BF909337
:1055CE00610080910206866080930206809100063B
:1055DE00816080930006809102068F7C80658093A7
:1055EE0002061092E20582E08093E40581E080934A
:1055FE00030A8EEF8093270A8093260A80E8809311
:10560E002D0A80932B0A8093290A80932C0A80936B
:10561E002A0A8093280A8BE08093000A87E0809301
:10562E00E505E0E8FAE037E02EEF90E885E031831B
:10563E002487958780837096E03C4AE0F407B9F79B
:10564E001092A10A8FE79EE38093AC0A9093AD0A65
:10565E008091A50A81608093A50A1092A00A80917C
:10566E00A00A81608093A00A789481E080936A29D1
:10567E0047E266E286E599E20E94800740E855E23D
:10568E0060E070E086E599E29BD81092492810926E
:10569E004A2810924B2810924C2810926228109291
:1056AE00632810925228109253281092602810925C
:1056BE006128109264281092652810925628109234
:1056CE00572883E19BE20E94090E88EF9AE20E941E
:1056DE00090E61E08BE00E94BE0861E08AE00E9444
:1056EE00BE0861E089E00E94BE0861E088E00E9489
:1056FE00BE0861E084E00E94BE0861E085E00E9481
:10570E00BE0861E086E00E94BE0861E087E00E946C
:10571E00BE0861E084E10E94BE0861E083E10E9460
:10572E00BE0861E082E10E94BE0861E08EE10E9447
:10573E00BE0861E080E20E94BE0861E08FE10E9437
:10574E00BE0861E08BE00E942B0961E08AE00E94B6
:10575E002B0961E089E00E942B0961E088E00E943C
:10576E002B0961E084E00E942B0961E085E00E9434
:10577E002B0961E086E00E942B0961E087E00E9420
:10578E002B0961E08CE00E948A0861E08DE00E94A6
:10579E008A0860E08CE00E94ED0860E08DE00E94D7
:1057AE00ED0861E081E20E948A0860E081E20E94D9
:1057BE00ED088091602C9091612C892B09F4A2C088
:1057CE0080E395E7A0E0B0E08093582C9093592C9D
:1057DE00A0935A2CB0935B2C8CE39CE20E94090E92
:1057EE0087E59CE20E94090E82E79CE20E94090E68
:1057FE0080EA90E00E94211391E0811101C090E0B7
:10580E009093A42861E08BE10E948A0861E08CE10C
:10581E000E948A0861E08DE10E948A0861E08AE1B7
:10582E000E948A0861E085E10E948A0861E088E1B1
:10583E000E948A0860E085E10E94ED0860E088E140
:10584E000E94ED0860910C2870910D28072E000C17
:10585E00880B990B0E94313A6B017C0120E030E0FD
:10586E00A9010E94923918160CF070C01092722A7B
:10587E001092732A1092742A1092752AC092762A68
:10588E00D092772AE092782AF092792A80917A2A19
:10589E00882309F45BC000915E2A10915F2AF801FB
:1058AE0080809180A280B380A5019401C701B601CA
:1058BE000E94923987FF2BC0F801C082D182E2820A
:1058CE00F3828090662A9090672AA090682AB09002
:1058DE00692AC090762AD090772AE090782AF090A4
:1058EE00792AA7019601C501B4010E94E13A181662
:1058FE00ECF4C092662AD092672AE092682AF0925F
:10590E00692A24C080E893ECA9ECB1E05DCF20E0D9
:10591E0030E0A901C501B4010E94923987FFD1CFB1
:10592E00F8011082118212821382CBCFC090722A9C
:10593E00D090732AE090742AF090752AA7019601F0
:10594E00C501B4010E94923987FDD3CF0E94390A56
:10595E0060934F2970935029809351299093522927
:10596E0080917A2A811149C0E0915E2AF0915F2AD6
:10597E00C080D180E280F380C092662AD092672ADE
:10598E00E092682AF092692AE0915C2AF0915D2AF1
:10599E0080819181A281B38180936A2A90936B2A30
:1059AE00A0936C2AB0936D2A8090762A9090772AD5
:1059BE00A090782AB090792AA5019401C701B6016A
:1059CE000E94E13A18164CF48092662A9092672A49
:1059DE00A092682AB092692A10C08090722A909084
:1059EE00732AA090742AB090752AA5019401C7015C
:1059FE00B6010E94923987FDE7CF11E010937A2A03
:105A0E000E94E409F89410930A0A1092010A8091F8
:105A1E00090A8E7F8093090A8AEF90E08093260A06
:105A2E009093270A8FE08093000A789482E0809307
:105A3E00F72947E266E286E599E20E94800740E890
:105A4E0055E260E070E086E599E20E94E72361E0AE
:105A5E008FE00E948A0861E080E10E948A0861E07E
:105A6E0083E00E948A0861E082E00E948A088BEE41
:105A7E009BE20E94090E86E09CE20E94090E81E2E2
:105A8E009CE20E94090E8FE79BE20E94090E8AE9B2
:105A9E009BE20E94090E85EB9BE20E94090E62E0DA
:105AAE0083E20E948A0862E085E20E948A0862E030
:105ABE0084E20E948A0862E082E20E948A0885EFF0
:105ACE0090E28093E62A9093E72A8CE391E180930B
:105ADE00EC2A9093ED2A87E591E18093EE2A90933C
:105AEE00EF2A8AE590E18093C72A9093C82A83EE25
:105AFE0090E18093CD2A9093CE2A80EC90E1809312
