:100200004FC000005DC000005BC0000059C000008E
:1002100057C0000055C0000053C0000051C000008E
:100220004FC000004DC000004BC0000049C000009E
:1002300047C0000045C0000043C0000041C00000AE
:100240003FC000003DC000003BC0000039C00000BE
:1002500037C0000035C0000033C0000031C00000CE
:100260002FC000003EC000002BC0000029C00000CD
:1002700027C0000025C0000023C0000021C00000EE
:100280001FC000001DC000001BC0000019C00000FE
:1002900017C0000015C0000013C0000011C000000E
:1002A00011241FBECFEFCDBFDFE3DEBF28E2A0E009
:1002B000B8E201C01D92A430B207E1F73AD0C6C03F
:1002C0009FCF9461FC0110828FB7F8949DE923E0E1
:1002D00094BF209300108FBF8091021081FDFCCF4E
:1002E00008951F920F920FB60F9211248F939F9330
:1002F000AF93BF938091002890910128A09102288C
:10030000B09103280196A11DB11D80930028909300
:100310000128A0930228B093032881E08093A60AC5
:10032000BF91AF919F918F910F900FBE0F901F9033
:10033000189588ED90E084BF90936100809102064B
:10034000866080930206809100068160809300069B
:10035000809102068F7C8065809302061092E205F0
:1003600082E08093E40581E08093030A8EEF80931E
:10037000270A8093260A80E880932D0A80932B0A0F
:100380008093290A80932C0A80932A0A8093280A52
:100390008BE08093000A87E08093E505E0E8FAE0CF
:1003A00037E02EEF90E885E03183248795878083BE
:1003B0007096E03C4AE0F407B9F71092A10A8FE783
:1003C0009EE38093AC0A9093AD0A8091A50A816068
:1003D0008093A50A1092A00A8091A00A8160809360
:1003E000A00A789490E080E06CDF82E090E069DF22
:1003F00085E090E066DF87E090E063DF88E090E0F2
:1004000060DF89E090E05DDF82E390E05ADF87E320
:1004100090E057DF8CE390E054DF81E490E051DF1F
:1004200086E490E04EDF80E590E04BDF8AE590E0E7
:1004300048DF84E690E045DF8EE690E042DFC0E0F2
:10044000D0E02097F1F30E940000FBCFF894FFCF9B
:0400000300000200F7
:00000001FF
