:020000040000FA
:1000000001C0D8C0112480914000882369F0282FB6
:1000100030E083FD03C02C7F232B31F4809340001C
:100020008CBB80E0AFD0ECC0A895009A089A1092E3
:10003000E205809182128370813029F58CE590E091
:10004000809308089093090881E080930B0883E06F
:10005000809307081092050880EC8093060888E0DA
:1000600091D0079A87E0815089F4A8950DE983E043
:10007000D82E7CD08134F1F479D0182F8CD012385E
:1000800089F480E013C083E790E0DACF179A2EEC72
:1000900036E5A8959091040897FDE8CF21503109E5
:1000A000C1F7E1CF89E0113809F083E058D080E151
:1000B00056D0DFCF823419F484E175D0F8CF85347F
:1000C00011F485E0FACF853531F450D0C82F4ED0E9
:1000D000D82F61D0ECCF863519F484E064D0D1CF2D
:1000E0008436B9F443D042D0182F40D0863479F406
:1000F000D05C3CD0888321961150D9F74CD004BFF6
:10010000D0920010809102108370E1F7D0CFDC5EB6
:10011000F0CF843791F42AD029D0182F27D0F82E89
:100120003AD086E4F81207C0D05C8881219617D0B7
:100130001150D9F7BCCFDC5EF8CF853751F42BD006
:10014000809100110CD08091011109D08091021191
:10015000ADCF813509F0BDCF81E014D0BACF9091F9
:10016000040895FFFCCF809302080895809104084D
:1001700087FFFCCF909101088091000892FD01C09B
:10018000A89508959091010190FDFCCF98ED94BF42
:10019000809300010895EADF803219F081E0F2DFF8
:1001A000FFCF84E1DCCFCF93C82FE0DFC150E9F768
:1001B000CF91F1CF683048F48DE984BF609300108F
:1001C000809102108370E1F70895FC014083089547
:1001FE0000094FC000005DC000005BC0000059C088
:10020E00000057C0000055C0000053C0000051C090
:10021E0000004FC000004DC000004BC0000049C0A0
:10022E00000047C0000045C0000043C0000041C0B0
:10023E0000003FC000003DC000003BC0000039C0C0
:10024E00000037C0000035C0000033C0000031C0D0
:10025E0000002FC000003EC000002BC0000029C0CF
:10026E00000027C0000025C0000023C0000021C0F0
:10027E0000001FC000001DC000001BC0000019C000
:10028E00000017C0000015C0000013C0000011C010
:10029E00000011241FBECFEFCDBFDFE3DEBF28E28B
:1002AE00A0E0B8E201C01D92A430B207E1F73AD047
:1002BE00C6C09FCF9461FC0110828FB7F8949DE960
:1002CE0023E094BF209300108FBF8091021081FD18
:1002DE00FCCF08951F920F920FB60F9211248F9399
:1002EE009F93AF93BF938091002890910128A09186
:1002FE000228B09103280196A11DB11D80930028FC
:10030E0090930128A0930228B093032881E0809354
:10031E00A60ABF91AF919F918F910F900FBE0F9034
:10032E001F90189588ED90E084BF909361008091A6
:10033E00020686608093020680910006816080939B
:10034E000006809102068F7C8065809302061092D3
:10035E00E20582E08093E40581E08093030A8EEF4C
:10036E008093270A8093260A80E880932D0A809333
:10037E002B0A8093290A80932C0A80932A0A809351
:10038E00280A8BE08093000A87E08093E505E0E879
:10039E00FAE037E02EEF90E885E0318324879587E9
:1003AE0080837096E03C4AE0F407B9F71092A10AF8
:1003BE008FE79EE38093AC0A9093AD0A8091A50AD5
:1003CE0081608093A50A1092A00A8091A00A816094
:1003DE008093A00A789490E080E06CDF82E090E059
:1003EE0069DF85E090E066DF87E090E063DF88E01C
:1003FE0090E060DF89E090E05DDF82E390E05ADF1D
:10040E0087E390E057DF8CE390E054DF81E490E0E7
:10041E0051DF86E490E04EDF80E590E04BDF8AE529
:10042E0090E048DF84E690E045DF8EE690E042DF24
:10043E00C0E0D0E02097F1F30E940000FBCFF894CB
:02044E00FFCFDE
:00000001FF
